{
  "_format": "hh-sol-artifact-1",
  "contractName": "CTNFTReward",
  "sourceName": "contracts/CTNFTReward.sol",
  "abi": [
    {
      "inputs": [],
      "stateMutability": "nonpayable",
      "type": "constructor"
    },
    {
      "inputs": [
        {
          "internalType": "address",
          "name": "sender",
          "type": "address"
        },
        {
          "internalType": "uint256",
          "name": "tokenId",
          "type": "uint256"
        },
        {
          "internalType": "address",
          "name": "owner",
          "type": "address"
        }
      ],
      "name": "ERC721IncorrectOwner",
      "type": "error"
    },
    {
      "inputs": [
        {
          "internalType": "address",
          "name": "operator",
          "type": "address"
        },
        {
          "internalType": "uint256",
          "name": "tokenId",
          "type": "uint256"
        }
      ],
      "name": "ERC721InsufficientApproval",
      "type": "error"
    },
    {
      "inputs": [
        {
          "internalType": "address",
          "name": "approver",
          "type": "address"
        }
      ],
      "name": "ERC721InvalidApprover",
      "type": "error"
    },
    {
      "inputs": [
        {
          "internalType": "address",
          "name": "operator",
          "type": "address"
        }
      ],
      "name": "ERC721InvalidOperator",
      "type": "error"
    },
    {
      "inputs": [
        {
          "internalType": "address",
          "name": "owner",
          "type": "address"
        }
      ],
      "name": "ERC721InvalidOwner",
      "type": "error"
    },
    {
      "inputs": [
        {
          "internalType": "address",
          "name": "receiver",
          "type": "address"
        }
      ],
      "name": "ERC721InvalidReceiver",
      "type": "error"
    },
    {
      "inputs": [
        {
          "internalType": "address",
          "name": "sender",
          "type": "address"
        }
      ],
      "name": "ERC721InvalidSender",
      "type": "error"
    },
    {
      "inputs": [
        {
          "internalType": "uint256",
          "name": "tokenId",
          "type": "uint256"
        }
      ],
      "name": "ERC721NonexistentToken",
      "type": "error"
    },
    {
      "inputs": [
        {
          "internalType": "address",
          "name": "owner",
          "type": "address"
        }
      ],
      "name": "OwnableInvalidOwner",
      "type": "error"
    },
    {
      "inputs": [
        {
          "internalType": "address",
          "name": "account",
          "type": "address"
        }
      ],
      "name": "OwnableUnauthorizedAccount",
      "type": "error"
    },
    {
      "anonymous": false,
      "inputs": [
        {
          "indexed": true,
          "internalType": "address",
          "name": "owner",
          "type": "address"
        },
        {
          "indexed": true,
          "internalType": "address",
          "name": "approved",
          "type": "address"
        },
        {
          "indexed": true,
          "internalType": "uint256",
          "name": "tokenId",
          "type": "uint256"
        }
      ],
      "name": "Approval",
      "type": "event"
    },
    {
      "anonymous": false,
      "inputs": [
        {
          "indexed": true,
          "internalType": "address",
          "name": "owner",
          "type": "address"
        },
        {
          "indexed": true,
          "internalType": "address",
          "name": "operator",
          "type": "address"
        },
        {
          "indexed": false,
          "internalType": "bool",
          "name": "approved",
          "type": "bool"
        }
      ],
      "name": "ApprovalForAll",
      "type": "event"
    },
    {
      "anonymous": false,
      "inputs": [
        {
          "indexed": false,
          "internalType": "uint256",
          "name": "_fromTokenId",
          "type": "uint256"
        },
        {
          "indexed": false,
          "internalType": "uint256",
          "name": "_toTokenId",
          "type": "uint256"
        }
      ],
      "name": "BatchMetadataUpdate",
      "type": "event"
    },
    {
      "anonymous": false,
      "inputs": [
        {
          "indexed": true,
          "internalType": "uint256",
          "name": "eventId",
          "type": "uint256"
        },
        {
          "indexed": false,
          "internalType": "string",
          "name": "name",
          "type": "string"
        },
        {
          "indexed": false,
          "internalType": "uint256",
          "name": "startTime",
          "type": "uint256"
        },
        {
          "indexed": false,
          "internalType": "uint256",
          "name": "endTime",
          "type": "uint256"
        }
      ],
      "name": "EventCreated",
      "type": "event"
    },
    {
      "anonymous": false,
      "inputs": [
        {
          "indexed": false,
          "internalType": "uint256",
          "name": "_tokenId",
          "type": "uint256"
        }
      ],
      "name": "MetadataUpdate",
      "type": "event"
    },
    {
      "anonymous": false,
      "inputs": [
        {
          "indexed": true,
          "internalType": "address",
          "name": "recipient",
          "type": "address"
        },
        {
          "indexed": true,
          "internalType": "uint256",
          "name": "tokenId",
          "type": "uint256"
        },
        {
          "indexed": true,
          "internalType": "uint256",
          "name": "eventId",
          "type": "uint256"
        },
        {
          "indexed": false,
          "internalType": "enum CTNFTReward.NFTTier",
          "name": "tier",
          "type": "uint8"
        },
        {
          "indexed": false,
          "internalType": "uint256",
          "name": "rank",
          "type": "uint256"
        },
        {
          "indexed": false,
          "internalType": "uint256",
          "name": "score",
          "type": "uint256"
        }
      ],
      "name": "NFTMinted",
      "type": "event"
    },
    {
      "anonymous": false,
      "inputs": [
        {
          "indexed": true,
          "internalType": "address",
          "name": "previousOwner",
          "type": "address"
        },
        {
          "indexed": true,
          "internalType": "address",
          "name": "newOwner",
          "type": "address"
        }
      ],
      "name": "OwnershipTransferred",
      "type": "event"
    },
    {
      "anonymous": false,
      "inputs": [
        {
          "indexed": true,
          "internalType": "address",
          "name": "from",
          "type": "address"
        },
        {
          "indexed": true,
          "internalType": "address",
          "name": "to",
          "type": "address"
        },
        {
          "indexed": true,
          "internalType": "uint256",
          "name": "tokenId",
          "type": "uint256"
        }
      ],
      "name": "Transfer",
      "type": "event"
    },
    {
      "inputs": [
        {
          "internalType": "address",
          "name": "to",
          "type": "address"
        },
        {
          "internalType": "uint256",
          "name": "tokenId",
          "type": "uint256"
        }
      ],
      "name": "approve",
      "outputs": [],
      "stateMutability": "nonpayable",
      "type": "function"
    },
    {
      "inputs": [
        {
          "internalType": "address",
          "name": "owner",
          "type": "address"
        }
      ],
      "name": "balanceOf",
      "outputs": [
        {
          "internalType": "uint256",
          "name": "",
          "type": "uint256"
        }
      ],
      "stateMutability": "view",
      "type": "function"
    },
    {
      "inputs": [
        {
          "internalType": "address[]",
          "name": "recipients",
          "type": "address[]"
        },
        {
          "internalType": "uint256",
          "name": "eventId",
          "type": "uint256"
        },
        {
          "internalType": "uint256[]",
          "name": "ranks",
          "type": "uint256[]"
        },
        {
          "internalType": "uint256[]",
          "name": "scores",
          "type": "uint256[]"
        },
        {
          "internalType": "uint256",
          "name": "totalParticipants",
          "type": "uint256"
        }
      ],
      "name": "batchMintRewards",
      "outputs": [],
      "stateMutability": "nonpayable",
      "type": "function"
    },
    {
      "inputs": [
        {
          "internalType": "string",
          "name": "name",
          "type": "string"
        },
        {
          "internalType": "uint256",
          "name": "startTime",
          "type": "uint256"
        },
        {
          "internalType": "uint256",
          "name": "endTime",
          "type": "uint256"
        }
      ],
      "name": "createEvent",
      "outputs": [
        {
          "internalType": "uint256",
          "name": "",
          "type": "uint256"
        }
      ],
      "stateMutability": "nonpayable",
      "type": "function"
    },
    {
      "inputs": [
        {
          "internalType": "uint256",
          "name": "eventId",
          "type": "uint256"
        }
      ],
      "name": "endEvent",
      "outputs": [],
      "stateMutability": "nonpayable",
      "type": "function"
    },
    {
      "inputs": [],
      "name": "eventCounter",
      "outputs": [
        {
          "internalType": "uint256",
          "name": "",
          "type": "uint256"
        }
      ],
      "stateMutability": "view",
      "type": "function"
    },
    {
      "inputs": [
        {
          "internalType": "uint256",
          "name": "",
          "type": "uint256"
        }
      ],
      "name": "events",
      "outputs": [
        {
          "internalType": "string",
          "name": "name",
          "type": "string"
        },
        {
          "internalType": "uint256",
          "name": "startTime",
          "type": "uint256"
        },
        {
          "internalType": "uint256",
          "name": "endTime",
          "type": "uint256"
        },
        {
          "internalType": "bool",
          "name": "isActive",
          "type": "bool"
        },
        {
          "internalType": "uint256",
          "name": "totalParticipants",
          "type": "uint256"
        }
      ],
      "stateMutability": "view",
      "type": "function"
    },
    {
      "inputs": [
        {
          "internalType": "uint256",
          "name": "tokenId",
          "type": "uint256"
        }
      ],
      "name": "getApproved",
      "outputs": [
        {
          "internalType": "address",
          "name": "",
          "type": "address"
        }
      ],
      "stateMutability": "view",
      "type": "function"
    },
    {
      "inputs": [
        {
          "internalType": "uint256",
          "name": "tokenId",
          "type": "uint256"
        }
      ],
      "name": "getNFTMetadata",
      "outputs": [
        {
          "components": [
            {
              "internalType": "uint256",
              "name": "eventId",
              "type": "uint256"
            },
            {
              "internalType": "enum CTNFTReward.NFTTier",
              "name": "tier",
              "type": "uint8"
            },
            {
              "internalType": "uint256",
              "name": "rank",
              "type": "uint256"
            },
            {
              "internalType": "uint256",
              "name": "score",
              "type": "uint256"
            },
            {
              "internalType": "string",
              "name": "eventName",
              "type": "string"
            },
            {
              "internalType": "uint256",
              "name": "mintTimestamp",
              "type": "uint256"
            }
          ],
          "internalType": "struct CTNFTReward.NFTMetadata",
          "name": "",
          "type": "tuple"
        }
      ],
      "stateMutability": "view",
      "type": "function"
    },
    {
      "inputs": [
        {
          "internalType": "uint256",
          "name": "eventId",
          "type": "uint256"
        },
        {
          "internalType": "address",
          "name": "user",
          "type": "address"
        }
      ],
      "name": "hasReceivedNFT",
      "outputs": [
        {
          "internalType": "bool",
          "name": "",
          "type": "bool"
        }
      ],
      "stateMutability": "view",
      "type": "function"
    },
    {
      "inputs": [
        {
          "internalType": "address",
          "name": "owner",
          "type": "address"
        },
        {
          "internalType": "address",
          "name": "operator",
          "type": "address"
        }
      ],
      "name": "isApprovedForAll",
      "outputs": [
        {
          "internalType": "bool",
          "name": "",
          "type": "bool"
        }
      ],
      "stateMutability": "view",
      "type": "function"
    },
    {
      "inputs": [
        {
          "internalType": "address",
          "name": "recipient",
          "type": "address"
        },
        {
          "internalType": "uint256",
          "name": "eventId",
          "type": "uint256"
        },
        {
          "internalType": "uint256",
          "name": "rank",
          "type": "uint256"
        },
        {
          "internalType": "uint256",
          "name": "score",
          "type": "uint256"
        },
        {
          "internalType": "uint256",
          "name": "totalParticipants",
          "type": "uint256"
        }
      ],
      "name": "mintReward",
      "outputs": [],
      "stateMutability": "nonpayable",
      "type": "function"
    },
    {
      "inputs": [],
      "name": "name",
      "outputs": [
        {
          "internalType": "string",
          "name": "",
          "type": "string"
        }
      ],
      "stateMutability": "view",
      "type": "function"
    },
    {
      "inputs": [
        {
          "internalType": "uint256",
          "name": "",
          "type": "uint256"
        }
      ],
      "name": "nftMetadata",
      "outputs": [
        {
          "internalType": "uint256",
          "name": "eventId",
          "type": "uint256"
        },
        {
          "internalType": "enum CTNFTReward.NFTTier",
          "name": "tier",
          "type": "uint8"
        },
        {
          "internalType": "uint256",
          "name": "rank",
          "type": "uint256"
        },
        {
          "internalType": "uint256",
          "name": "score",
          "type": "uint256"
        },
        {
          "internalType": "string",
          "name": "eventName",
          "type": "string"
        },
        {
          "internalType": "uint256",
          "name": "mintTimestamp",
          "type": "uint256"
        }
      ],
      "stateMutability": "view",
      "type": "function"
    },
    {
      "inputs": [],
      "name": "owner",
      "outputs": [
        {
          "internalType": "address",
          "name": "",
          "type": "address"
        }
      ],
      "stateMutability": "view",
      "type": "function"
    },
    {
      "inputs": [
        {
          "internalType": "uint256",
          "name": "tokenId",
          "type": "uint256"
        }
      ],
      "name": "ownerOf",
      "outputs": [
        {
          "internalType": "address",
          "name": "",
          "type": "address"
        }
      ],
      "stateMutability": "view",
      "type": "function"
    },
    {
      "inputs": [],
      "name": "renounceOwnership",
      "outputs": [],
      "stateMutability": "nonpayable",
      "type": "function"
    },
    {
      "inputs": [
        {
          "internalType": "address",
          "name": "from",
          "type": "address"
        },
        {
          "internalType": "address",
          "name": "to",
          "type": "address"
        },
        {
          "internalType": "uint256",
          "name": "tokenId",
          "type": "uint256"
        }
      ],
      "name": "safeTransferFrom",
      "outputs": [],
      "stateMutability": "nonpayable",
      "type": "function"
    },
    {
      "inputs": [
        {
          "internalType": "address",
          "name": "from",
          "type": "address"
        },
        {
          "internalType": "address",
          "name": "to",
          "type": "address"
        },
        {
          "internalType": "uint256",
          "name": "tokenId",
          "type": "uint256"
        },
        {
          "internalType": "bytes",
          "name": "data",
          "type": "bytes"
        }
      ],
      "name": "safeTransferFrom",
      "outputs": [],
      "stateMutability": "nonpayable",
      "type": "function"
    },
    {
      "inputs": [
        {
          "internalType": "address",
          "name": "operator",
          "type": "address"
        },
        {
          "internalType": "bool",
          "name": "approved",
          "type": "bool"
        }
      ],
      "name": "setApprovalForAll",
      "outputs": [],
      "stateMutability": "nonpayable",
      "type": "function"
    },
    {
      "inputs": [
        {
          "internalType": "enum CTNFTReward.NFTTier",
          "name": "tier",
          "type": "uint8"
        },
        {
          "internalType": "string",
          "name": "baseURI",
          "type": "string"
        }
      ],
      "name": "setTierBaseURI",
      "outputs": [],
      "stateMutability": "nonpayable",
      "type": "function"
    },
    {
      "inputs": [
        {
          "internalType": "bytes4",
          "name": "interfaceId",
          "type": "bytes4"
        }
      ],
      "name": "supportsInterface",
      "outputs": [
        {
          "internalType": "bool",
          "name": "",
          "type": "bool"
        }
      ],
      "stateMutability": "view",
      "type": "function"
    },
    {
      "inputs": [],
      "name": "symbol",
      "outputs": [
        {
          "internalType": "string",
          "name": "",
          "type": "string"
        }
      ],
      "stateMutability": "view",
      "type": "function"
    },
    {
      "inputs": [
        {
          "internalType": "enum CTNFTReward.NFTTier",
          "name": "",
          "type": "uint8"
        }
      ],
      "name": "tierBaseURIs",
      "outputs": [
        {
          "internalType": "string",
          "name": "",
          "type": "string"
        }
      ],
      "stateMutability": "view",
      "type": "function"
    },
    {
      "inputs": [
        {
          "internalType": "uint256",
          "name": "tokenId",
          "type": "uint256"
        }
      ],
      "name": "tokenURI",
      "outputs": [
        {
          "internalType": "string",
          "name": "",
          "type": "string"
        }
      ],
      "stateMutability": "view",
      "type": "function"
    },
    {
      "inputs": [
        {
          "internalType": "address",
          "name": "from",
          "type": "address"
        },
        {
          "internalType": "address",
          "name": "to",
          "type": "address"
        },
        {
          "internalType": "uint256",
          "name": "tokenId",
          "type": "uint256"
        }
      ],
      "name": "transferFrom",
      "outputs": [],
      "stateMutability": "nonpayable",
      "type": "function"
    },
    {
      "inputs": [
        {
          "internalType": "address",
          "name": "newOwner",
          "type": "address"
        }
      ],
      "name": "transferOwnership",
      "outputs": [],
      "stateMutability": "nonpayable",
      "type": "function"
    }
  ],
  "bytecode": "0x60806040523480156200001157600080fd5b50336040518060400160405280600c81526020016b10d51391950814995dd85c9960a21b8152506040518060400160405280600581526020016410d513919560da1b8152508160009081620000679190620001b1565b506001620000768282620001b1565b5050506001600160a01b038116620000a857604051631e4fbdf760e01b81526000600482015260240160405180910390fd5b620000b381620000ba565b506200027d565b600780546001600160a01b038381166001600160a01b0319831681179093556040519116919082907f8be0079c531659141344cd1fd0a4f28419497f9722a3daafe3b4186f6b6457e090600090a35050565b634e487b7160e01b600052604160045260246000fd5b600181811c908216806200013757607f821691505b6020821081036200015857634e487b7160e01b600052602260045260246000fd5b50919050565b601f821115620001ac57600081815260208120601f850160051c81016020861015620001875750805b601f850160051c820191505b81811015620001a85782815560010162000193565b5050505b505050565b81516001600160401b03811115620001cd57620001cd6200010c565b620001e581620001de845462000122565b846200015e565b602080601f8311600181146200021d5760008415620002045750858301515b600019600386901b1c1916600185901b178555620001a8565b600085815260208120601f198616915b828110156200024e578886015182559484019460019091019084016200022d565b50858210156200026d5787850151600019600388901b60f8161c191681555b5050505050600190811b01905550565b61262f806200028d6000396000f3fe608060405234801561001057600080fd5b50600436106101a95760003560e01c80636963aca8116100f95780639e9580f611610097578063bb3149cb11610071578063bb3149cb146103b0578063c87b56dd146103c3578063e985e9c5146103d6578063f2fde38b146103e957600080fd5b80639e9580f614610377578063a22cb4651461038a578063b88d4fde1461039d57600080fd5b8063715018a6116100d3578063715018a6146103435780638c85e1a01461034b5780638da5cb5b1461035e57806395d89b411461036f57600080fd5b80636963aca8146102fd5780636be9a6f11461031057806370a082311461033057600080fd5b80630b7914301161016657806342842e0e1161014057806342842e0e1461029b57806349541015146102ae57806352c55db9146102d35780636352211e146102ea57600080fd5b80630b7914301461025157806323b872dd14610275578063330a347b1461028857600080fd5b8063013092fa146101ae57806301ffc9a7146101d657806306c8c525146101e957806306fdde0314610209578063081812fc14610211578063095ea7b31461023c575b600080fd5b6101c16101bc366004611cde565b6103fc565b60405190151581526020015b60405180910390f35b6101c16101e4366004611d20565b61042c565b6101fc6101f7366004611d4c565b610437565b6040516101cd9190611db7565b6101fc6104d1565b61022461021f366004611dca565b610563565b6040516001600160a01b0390911681526020016101cd565b61024f61024a366004611de3565b61058c565b005b61026461025f366004611dca565b61059b565b6040516101cd959493929190611e0d565b61024f610283366004611e44565b610658565b61024f610296366004611dca565b6106e8565b61024f6102a9366004611e44565b610753565b6102c16102bc366004611dca565b610773565b6040516101cd96959493929190611eb8565b6102dc600c5481565b6040519081526020016101cd565b6102246102f8366004611dca565b610836565b61024f61030b366004611fa9565b610841565b61032361031e366004611dca565b61088b565b6040516101cd9190611ff7565b6102dc61033e36600461205a565b610a29565b61024f610a71565b61024f6103593660046120c1565b610a85565b6007546001600160a01b0316610224565b6101fc610bc4565b6102dc61038536600461216c565b610bd3565b61024f6103983660046121ba565b610cbf565b61024f6103ab3660046121f6565b610cca565b61024f6103be366004612272565b610ce2565b6101fc6103d1366004611dca565b611036565b6101c16103e43660046122b4565b611041565b61024f6103f736600461205a565b61106f565b60008281526009602090815260408083206001600160a01b038516845260050190915290205460ff165b92915050565b6000610426826110ad565b600b6020526000908152604090208054610450906122de565b80601f016020809104026020016040519081016040528092919081815260200182805461047c906122de565b80156104c95780601f1061049e576101008083540402835291602001916104c9565b820191906000526020600020905b8154815290600101906020018083116104ac57829003601f168201915b505050505081565b6060600080546104e0906122de565b80601f016020809104026020016040519081016040528092919081815260200182805461050c906122de565b80156105595780601f1061052e57610100808354040283529160200191610559565b820191906000526020600020905b81548152906001019060200180831161053c57829003601f168201915b5050505050905090565b600061056e826110d2565b506000828152600460205260409020546001600160a01b0316610426565b61059782823361110b565b5050565b6009602052600090815260409020805481906105b6906122de565b80601f01602080910402602001604051908101604052809291908181526020018280546105e2906122de565b801561062f5780601f106106045761010080835404028352916020019161062f565b820191906000526020600020905b81548152906001019060200180831161061257829003601f168201915b5050506001840154600285015460038601546004909601549495919490935060ff909116915085565b6001600160a01b03821661068757604051633250574960e11b8152600060048201526024015b60405180910390fd5b6000610694838333611118565b9050836001600160a01b0316816001600160a01b0316146106e2576040516364283d7b60e01b81526001600160a01b038086166004830152602482018490528216604482015260640161067e565b50505050565b6106f0611211565b600c5481106107385760405162461bcd60e51b8152602060048201526014602482015273115d995b9d08191bd95cc81b9bdd08195e1a5cdd60621b604482015260640161067e565b6000908152600960205260409020600301805460ff19169055565b61076e83838360405180602001604052806000815250610cca565b505050565b600a6020526000908152604090208054600182015460028301546003840154600485018054949560ff90941694929391926107ad906122de565b80601f01602080910402602001604051908101604052809291908181526020018280546107d9906122de565b80156108265780601f106107fb57610100808354040283529160200191610826565b820191906000526020600020905b81548152906001019060200180831161080957829003601f168201915b5050505050908060050154905086565b6000610426826110d2565b610849611211565b80600b600084600381111561086057610860611e80565b600381111561087157610871611e80565b8152602001908152602001600020908161076e919061235e565b6108c56040805160c08101909152600080825260208201908152602001600081526020016000815260200160608152602001600081525090565b6000828152600260205260409020546001600160a01b03166109205760405162461bcd60e51b8152602060048201526014602482015273151bdad95b88191bd95cc81b9bdd08195e1a5cdd60621b604482015260640161067e565b6000828152600a6020908152604091829020825160c08101909352805483526001810154909183019060ff16600381111561095d5761095d611e80565b600381111561096e5761096e611e80565b81526020016002820154815260200160038201548152602001600482018054610996906122de565b80601f01602080910402602001604051908101604052809291908181526020018280546109c2906122de565b8015610a0f5780601f106109e457610100808354040283529160200191610a0f565b820191906000526020600020905b8154815290600101906020018083116109f257829003601f168201915b505050505081526020016005820154815250509050919050565b60006001600160a01b038216610a55576040516322718ad960e21b81526000600482015260240161067e565b506001600160a01b031660009081526003602052604090205490565b610a79611211565b610a83600061123e565b565b610a8d611211565b8684148015610a9b57508382145b610adf5760405162461bcd60e51b8152602060048201526015602482015274082e4e4c2f240d8cadccee8d040dad2e6dac2e8c6d605b1b604482015260640161067e565b60005b87811015610bb9576000878152600960205260408120600501908a8a84818110610b0e57610b0e61241e565b9050602002016020810190610b23919061205a565b6001600160a01b0316815260208101919091526040016000205460ff16610ba757610ba7898983818110610b5957610b5961241e565b9050602002016020810190610b6e919061205a565b88888885818110610b8157610b8161241e565b90506020020135878786818110610b9a57610b9a61241e565b9050602002013586610ce2565b80610bb18161244a565b915050610ae2565b505050505050505050565b6060600180546104e0906122de565b6000610bdd611211565b818310610c215760405162461bcd60e51b8152602060048201526012602482015271496e76616c69642074696d652072616e676560701b604482015260640161067e565b600c805460009182610c328361244a565b90915550600081815260096020526040902090915080610c52878261235e565b5060018082018690556002820185905560038201805460ff191690911790556000600482015560405182907f42e6867e52299b45991308391cccb9ee79466d194059ff10fc15c2d88f0ea06190610cae90899089908990612463565b60405180910390a250949350505050565b610597338383611290565b610cd5848484610658565b6106e2338585858561132f565b610cea611211565b6001600160a01b038516610d345760405162461bcd60e51b8152602060048201526011602482015270125b9d985b1a59081c9958da5c1a595b9d607a1b604482015260640161067e565b600c548410610d7c5760405162461bcd60e51b8152602060048201526014602482015273115d995b9d08191bd95cc81b9bdd08195e1a5cdd60621b604482015260640161067e565b60008481526009602090815260408083206001600160a01b038916845260050190915290205460ff1615610de95760405162461bcd60e51b8152602060048201526014602482015273105b1c9958591e481c9958d95a5d99590813919560621b604482015260640161067e565b600084815260096020526040902060028101544211610e3c5760405162461bcd60e51b815260206004820152600f60248201526e115d995b9d081b9bdd08195b991959608a1b604482015260640161067e565b6000610e48858461145a565b6008805491925081906000610e5c8361244a565b91905055506040518060c00160405280888152602001836003811115610e8457610e84611e80565b8152602001878152602001868152602001846000018054610ea4906122de565b80601f0160208091040260200160405190810160405280929190818152602001828054610ed0906122de565b8015610f1d5780601f10610ef257610100808354040283529160200191610f1d565b820191906000526020600020905b815481529060010190602001808311610f0057829003601f168201915b5050509183525050426020918201526000838152600a825260409020825181559082015160018083018054909160ff1990911690836003811115610f6357610f63611e80565b0217905550604082015160028201556060820151600382015560808201516004820190610f90908261235e565b5060a091909101516005918201556001600160a01b038916600090815290840160205260409020805460ff19166001179055610fcc88826114b5565b6000610fd882846114cf565b9050610fe482826115e6565b87828a6001600160a01b03167f6d62157876ce35210081ca7b6c14407ce66a7ff429bd56f92a8dcd732e05ca65868b8b60405161102393929190612488565b60405180910390a4505050505050505050565b606061042682611636565b6001600160a01b03918216600090815260056020908152604080832093909416825291909152205460ff1690565b611077611211565b6001600160a01b0381166110a157604051631e4fbdf760e01b81526000600482015260240161067e565b6110aa8161123e565b50565b60006001600160e01b03198216632483248360e11b1480610426575061042682611747565b6000818152600260205260408120546001600160a01b03168061042657604051637e27328960e01b81526004810184905260240161067e565b61076e8383836001611797565b6000828152600260205260408120546001600160a01b03908116908316156111455761114581848661189d565b6001600160a01b0381161561118357611162600085600080611797565b6001600160a01b038116600090815260036020526040902080546000190190555b6001600160a01b038516156111b2576001600160a01b0385166000908152600360205260409020805460010190555b60008481526002602052604080822080546001600160a01b0319166001600160a01b0389811691821790925591518793918516917fddf252ad1be2c89b69c2b068fc378daa952ba7f163c4a11628f55a4df523b3ef91a4949350505050565b6007546001600160a01b03163314610a835760405163118cdaa760e01b815233600482015260240161067e565b600780546001600160a01b038381166001600160a01b0319831681179093556040519116919082907f8be0079c531659141344cd1fd0a4f28419497f9722a3daafe3b4186f6b6457e090600090a35050565b6001600160a01b0382166112c257604051630b61174360e31b81526001600160a01b038316600482015260240161067e565b6001600160a01b03838116600081815260056020908152604080832094871680845294825291829020805460ff191686151590811790915591519182527f17307eab39ab6107e8899845ad3d59bd9653f200f220920489ca2b5937696c31910160405180910390a3505050565b6001600160a01b0383163b1561145357604051630a85bd0160e11b81526001600160a01b0384169063150b7a02906113719088908890879087906004016124a7565b6020604051808303816000875af19250505080156113ac575060408051601f3d908101601f191682019092526113a9918101906124e4565b60015b611415573d8080156113da576040519150601f19603f3d011682016040523d82523d6000602084013e6113df565b606091505b50805160000361140d57604051633250574960e11b81526001600160a01b038516600482015260240161067e565b805160208201fd5b6001600160e01b03198116630a85bd0160e11b1461145157604051633250574960e11b81526001600160a01b038516600482015260240161067e565b505b5050505050565b60008082611469856064612501565b611473919061252e565b905060018111611487576003915050610426565b600a8111611499576002915050610426565b601981116114ab576001915050610426565b6000915050610426565b610597828260405180602001604052806000815250611901565b60606000600b60008460038111156114e9576114e9611e80565b60038111156114fa576114fa611e80565b81526020019081526020016000208054611513906122de565b80601f016020809104026020016040519081016040528092919081815260200182805461153f906122de565b801561158c5780601f106115615761010080835404028352916020019161158c565b820191906000526020600020905b81548152906001019060200180831161156f57829003601f168201915b505050505090506000815111156115cf57806115a785611919565b6040516020016115b8929190612542565b604051602081830303815290604052915050610426565b505060408051602081019091526000815292915050565b60008281526006602052604090206115fe828261235e565b506040518281527ff8e1a15aba9398e019f0b49df1a4fde98ee17ae345cb5f6b5e2c27f5033e8ce79060200160405180910390a15050565b6060611641826110d2565b506000828152600660205260408120805461165b906122de565b80601f0160208091040260200160405190810160405280929190818152602001828054611687906122de565b80156116d45780601f106116a9576101008083540402835291602001916116d4565b820191906000526020600020905b8154815290600101906020018083116116b757829003601f168201915b5050505050905060006116f260408051602081019091526000815290565b90508051600003611704575092915050565b81511561173657808260405160200161171e929190612590565b60405160208183030381529060405292505050919050565b61173f84611a1a565b949350505050565b60006001600160e01b031982166380ac58cd60e01b148061177857506001600160e01b03198216635b5e139f60e01b145b8061042657506301ffc9a760e01b6001600160e01b0319831614610426565b80806117ab57506001600160a01b03821615155b1561186d5760006117bb846110d2565b90506001600160a01b038316158015906117e75750826001600160a01b0316816001600160a01b031614155b80156117fa57506117f88184611041565b155b156118235760405163a9fbf51f60e01b81526001600160a01b038416600482015260240161067e565b811561186b5783856001600160a01b0316826001600160a01b03167f8c5be1e5ebec7d5bd14f71427d1e84f3dd0314c0f7b2291e5b200ac8c7c3b92560405160405180910390a45b505b5050600090815260046020526040902080546001600160a01b0319166001600160a01b0392909216919091179055565b6118a8838383611a8f565b61076e576001600160a01b0383166118d657604051637e27328960e01b81526004810182905260240161067e565b60405163177e802f60e01b81526001600160a01b03831660048201526024810182905260440161067e565b61190b8383611af2565b61076e33600085858561132f565b6060816000036119405750506040805180820190915260018152600360fc1b602082015290565b8160005b811561196a57806119548161244a565b91506119639050600a8361252e565b9150611944565b60008167ffffffffffffffff81111561198557611985611efd565b6040519080825280601f01601f1916602001820160405280156119af576020820181803683370190505b5090505b841561173f576119c46001836125bf565b91506119d1600a866125d2565b6119dc9060306125e6565b60f81b8183815181106119f1576119f161241e565b60200101906001600160f81b031916908160001a905350611a13600a8661252e565b94506119b3565b6060611a25826110d2565b506000611a3d60408051602081019091526000815290565b90506000815111611a5d5760405180602001604052806000815250611a88565b80611a6784611b57565b604051602001611a78929190612590565b6040516020818303038152906040525b9392505050565b60006001600160a01b0383161580159061173f5750826001600160a01b0316846001600160a01b03161480611ac95750611ac98484611041565b8061173f5750506000908152600460205260409020546001600160a01b03908116911614919050565b6001600160a01b038216611b1c57604051633250574960e11b81526000600482015260240161067e565b6000611b2a83836000611118565b90506001600160a01b0381161561076e576040516339e3563760e11b81526000600482015260240161067e565b60606000611b6483611bea565b600101905060008167ffffffffffffffff811115611b8457611b84611efd565b6040519080825280601f01601f191660200182016040528015611bae576020820181803683370190505b5090508181016020015b600019016f181899199a1a9b1b9c1cb0b131b232b360811b600a86061a8153600a8504945084611bb857509392505050565b60008072184f03e93ff9f4daa797ed6e38ed64bf6a1f0160401b8310611c295772184f03e93ff9f4daa797ed6e38ed64bf6a1f0160401b830492506040015b6d04ee2d6d415b85acef81000000008310611c55576d04ee2d6d415b85acef8100000000830492506020015b662386f26fc100008310611c7357662386f26fc10000830492506010015b6305f5e1008310611c8b576305f5e100830492506008015b6127108310611c9f57612710830492506004015b60648310611cb1576064830492506002015b600a83106104265760010192915050565b80356001600160a01b0381168114611cd957600080fd5b919050565b60008060408385031215611cf157600080fd5b82359150611d0160208401611cc2565b90509250929050565b6001600160e01b0319811681146110aa57600080fd5b600060208284031215611d3257600080fd5b8135611a8881611d0a565b803560048110611cd957600080fd5b600060208284031215611d5e57600080fd5b611a8882611d3d565b60005b83811015611d82578181015183820152602001611d6a565b50506000910152565b60008151808452611da3816020860160208601611d67565b601f01601f19169290920160200192915050565b602081526000611a886020830184611d8b565b600060208284031215611ddc57600080fd5b5035919050565b60008060408385031215611df657600080fd5b611dff83611cc2565b946020939093013593505050565b60a081526000611e2060a0830188611d8b565b60208301969096525060408101939093529015156060830152608090910152919050565b600080600060608486031215611e5957600080fd5b611e6284611cc2565b9250611e7060208501611cc2565b9150604084013590509250925092565b634e487b7160e01b600052602160045260246000fd5b60048110611eb457634e487b7160e01b600052602160045260246000fd5b9052565b868152611ec86020820187611e96565b84604082015283606082015260c060808201526000611eea60c0830185611d8b565b90508260a0830152979650505050505050565b634e487b7160e01b600052604160045260246000fd5b600067ffffffffffffffff80841115611f2e57611f2e611efd565b604051601f8501601f19908116603f01168101908282118183101715611f5657611f56611efd565b81604052809350858152868686011115611f6f57600080fd5b858560208301376000602087830101525050509392505050565b600082601f830112611f9a57600080fd5b611a8883833560208501611f13565b60008060408385031215611fbc57600080fd5b611fc583611d3d565b9150602083013567ffffffffffffffff811115611fe157600080fd5b611fed85828601611f89565b9150509250929050565b6020815281516020820152600060208301516120166040840182611e96565b506040830151606083015260608301516080830152608083015160c060a084015261204460e0840182611d8b565b905060a084015160c08401528091505092915050565b60006020828403121561206c57600080fd5b611a8882611cc2565b60008083601f84011261208757600080fd5b50813567ffffffffffffffff81111561209f57600080fd5b6020830191508360208260051b85010111156120ba57600080fd5b9250929050565b60008060008060008060008060a0898b0312156120dd57600080fd5b883567ffffffffffffffff808211156120f557600080fd5b6121018c838d01612075565b909a50985060208b0135975060408b013591508082111561212157600080fd5b61212d8c838d01612075565b909750955060608b013591508082111561214657600080fd5b506121538b828c01612075565b999c989b50969995989497949560800135949350505050565b60008060006060848603121561218157600080fd5b833567ffffffffffffffff81111561219857600080fd5b6121a486828701611f89565b9660208601359650604090950135949350505050565b600080604083850312156121cd57600080fd5b6121d683611cc2565b9150602083013580151581146121eb57600080fd5b809150509250929050565b6000806000806080858703121561220c57600080fd5b61221585611cc2565b935061222360208601611cc2565b925060408501359150606085013567ffffffffffffffff81111561224657600080fd5b8501601f8101871361225757600080fd5b61226687823560208401611f13565b91505092959194509250565b600080600080600060a0868803121561228a57600080fd5b61229386611cc2565b97602087013597506040870135966060810135965060800135945092505050565b600080604083850312156122c757600080fd5b6122d083611cc2565b9150611d0160208401611cc2565b600181811c908216806122f257607f821691505b60208210810361231257634e487b7160e01b600052602260045260246000fd5b50919050565b601f82111561076e57600081815260208120601f850160051c8101602086101561233f5750805b601f850160051c820191505b818110156114515782815560010161234b565b815167ffffffffffffffff81111561237857612378611efd565b61238c8161238684546122de565b84612318565b602080601f8311600181146123c157600084156123a95750858301515b600019600386901b1c1916600185901b178555611451565b600085815260208120601f198616915b828110156123f0578886015182559484019460019091019084016123d1565b508582101561240e5787850151600019600388901b60f8161c191681555b5050505050600190811b01905550565b634e487b7160e01b600052603260045260246000fd5b634e487b7160e01b600052601160045260246000fd5b60006001820161245c5761245c612434565b5060010190565b6060815260006124766060830186611d8b565b60208301949094525060400152919050565b606081016124968286611e96565b602082019390935260400152919050565b6001600160a01b03858116825284166020820152604081018390526080606082018190526000906124da90830184611d8b565b9695505050505050565b6000602082840312156124f657600080fd5b8151611a8881611d0a565b808202811582820484141761042657610426612434565b634e487b7160e01b600052601260045260246000fd5b60008261253d5761253d612518565b500490565b60008351612554818460208801611d67565b602f60f81b9083019081528351612572816001840160208801611d67565b64173539b7b760d91b60019290910191820152600601949350505050565b600083516125a2818460208801611d67565b8351908301906125b6818360208801611d67565b01949350505050565b8181038181111561042657610426612434565b6000826125e1576125e1612518565b500690565b808201808211156104265761042661243456fea2646970667358221220708850c3dab095ea876432c9845d1c749c0a84e0546a8678bb13d7cad6c2083a64736f6c63430008140033",
  "linkReferences": {},
  "deployedLinkReferences": {}
}