{
  "_format": "hh-sol-artifact-1",
  "contractName": "CTNFT",
  "sourceName": "contracts/CTNFT.sol",
  "abi": [
    {
      "inputs": [],
      "stateMutability": "nonpayable",
      "type": "constructor"
    },
    {
      "inputs": [
        {
          "internalType": "address",
          "name": "sender",
          "type": "address"
        },
        {
          "internalType": "uint256",
          "name": "tokenId",
          "type": "uint256"
        },
        {
          "internalType": "address",
          "name": "owner",
          "type": "address"
        }
      ],
      "name": "ERC721IncorrectOwner",
      "type": "error"
    },
    {
      "inputs": [
        {
          "internalType": "address",
          "name": "operator",
          "type": "address"
        },
        {
          "internalType": "uint256",
          "name": "tokenId",
          "type": "uint256"
        }
      ],
      "name": "ERC721InsufficientApproval",
      "type": "error"
    },
    {
      "inputs": [
        {
          "internalType": "address",
          "name": "approver",
          "type": "address"
        }
      ],
      "name": "ERC721InvalidApprover",
      "type": "error"
    },
    {
      "inputs": [
        {
          "internalType": "address",
          "name": "operator",
          "type": "address"
        }
      ],
      "name": "ERC721InvalidOperator",
      "type": "error"
    },
    {
      "inputs": [
        {
          "internalType": "address",
          "name": "owner",
          "type": "address"
        }
      ],
      "name": "ERC721InvalidOwner",
      "type": "error"
    },
    {
      "inputs": [
        {
          "internalType": "address",
          "name": "receiver",
          "type": "address"
        }
      ],
      "name": "ERC721InvalidReceiver",
      "type": "error"
    },
    {
      "inputs": [
        {
          "internalType": "address",
          "name": "sender",
          "type": "address"
        }
      ],
      "name": "ERC721InvalidSender",
      "type": "error"
    },
    {
      "inputs": [
        {
          "internalType": "uint256",
          "name": "tokenId",
          "type": "uint256"
        }
      ],
      "name": "ERC721NonexistentToken",
      "type": "error"
    },
    {
      "inputs": [
        {
          "internalType": "address",
          "name": "owner",
          "type": "address"
        }
      ],
      "name": "OwnableInvalidOwner",
      "type": "error"
    },
    {
      "inputs": [
        {
          "internalType": "address",
          "name": "account",
          "type": "address"
        }
      ],
      "name": "OwnableUnauthorizedAccount",
      "type": "error"
    },
    {
      "anonymous": false,
      "inputs": [
        {
          "indexed": true,
          "internalType": "address",
          "name": "owner",
          "type": "address"
        },
        {
          "indexed": true,
          "internalType": "address",
          "name": "approved",
          "type": "address"
        },
        {
          "indexed": true,
          "internalType": "uint256",
          "name": "tokenId",
          "type": "uint256"
        }
      ],
      "name": "Approval",
      "type": "event"
    },
    {
      "anonymous": false,
      "inputs": [
        {
          "indexed": true,
          "internalType": "address",
          "name": "owner",
          "type": "address"
        },
        {
          "indexed": true,
          "internalType": "address",
          "name": "operator",
          "type": "address"
        },
        {
          "indexed": false,
          "internalType": "bool",
          "name": "approved",
          "type": "bool"
        }
      ],
      "name": "ApprovalForAll",
      "type": "event"
    },
    {
      "anonymous": false,
      "inputs": [
        {
          "indexed": false,
          "internalType": "uint256",
          "name": "_fromTokenId",
          "type": "uint256"
        },
        {
          "indexed": false,
          "internalType": "uint256",
          "name": "_toTokenId",
          "type": "uint256"
        }
      ],
      "name": "BatchMetadataUpdate",
      "type": "event"
    },
    {
      "anonymous": false,
      "inputs": [
        {
          "indexed": false,
          "internalType": "uint256",
          "name": "_tokenId",
          "type": "uint256"
        }
      ],
      "name": "MetadataUpdate",
      "type": "event"
    },
    {
      "anonymous": false,
      "inputs": [
        {
          "indexed": true,
          "internalType": "address",
          "name": "to",
          "type": "address"
        },
        {
          "indexed": true,
          "internalType": "uint256",
          "name": "tokenId",
          "type": "uint256"
        },
        {
          "indexed": false,
          "internalType": "string",
          "name": "eventId",
          "type": "string"
        },
        {
          "indexed": false,
          "internalType": "uint256",
          "name": "rank",
          "type": "uint256"
        },
        {
          "indexed": false,
          "internalType": "string",
          "name": "tier",
          "type": "string"
        }
      ],
      "name": "NFTMinted",
      "type": "event"
    },
    {
      "anonymous": false,
      "inputs": [
        {
          "indexed": true,
          "internalType": "address",
          "name": "previousOwner",
          "type": "address"
        },
        {
          "indexed": true,
          "internalType": "address",
          "name": "newOwner",
          "type": "address"
        }
      ],
      "name": "OwnershipTransferred",
      "type": "event"
    },
    {
      "anonymous": false,
      "inputs": [
        {
          "indexed": true,
          "internalType": "address",
          "name": "from",
          "type": "address"
        },
        {
          "indexed": true,
          "internalType": "address",
          "name": "to",
          "type": "address"
        },
        {
          "indexed": true,
          "internalType": "uint256",
          "name": "tokenId",
          "type": "uint256"
        }
      ],
      "name": "Transfer",
      "type": "event"
    },
    {
      "inputs": [
        {
          "internalType": "string",
          "name": "eventId",
          "type": "string"
        }
      ],
      "name": "addValidEvent",
      "outputs": [],
      "stateMutability": "nonpayable",
      "type": "function"
    },
    {
      "inputs": [
        {
          "internalType": "address",
          "name": "to",
          "type": "address"
        },
        {
          "internalType": "uint256",
          "name": "tokenId",
          "type": "uint256"
        }
      ],
      "name": "approve",
      "outputs": [],
      "stateMutability": "nonpayable",
      "type": "function"
    },
    {
      "inputs": [
        {
          "internalType": "address",
          "name": "owner",
          "type": "address"
        }
      ],
      "name": "balanceOf",
      "outputs": [
        {
          "internalType": "uint256",
          "name": "",
          "type": "uint256"
        }
      ],
      "stateMutability": "view",
      "type": "function"
    },
    {
      "inputs": [
        {
          "internalType": "address[]",
          "name": "recipients",
          "type": "address[]"
        },
        {
          "internalType": "string",
          "name": "eventId",
          "type": "string"
        },
        {
          "internalType": "uint256[]",
          "name": "ranks",
          "type": "uint256[]"
        },
        {
          "internalType": "uint256[]",
          "name": "scores",
          "type": "uint256[]"
        },
        {
          "internalType": "string[]",
          "name": "tiers",
          "type": "string[]"
        },
        {
          "internalType": "string[]",
          "name": "tokenURIs",
          "type": "string[]"
        }
      ],
      "name": "batchMintNFTs",
      "outputs": [],
      "stateMutability": "nonpayable",
      "type": "function"
    },
    {
      "inputs": [
        {
          "internalType": "uint256",
          "name": "",
          "type": "uint256"
        }
      ],
      "name": "eventNFTs",
      "outputs": [
        {
          "internalType": "string",
          "name": "eventId",
          "type": "string"
        },
        {
          "internalType": "uint256",
          "name": "rank",
          "type": "uint256"
        },
        {
          "internalType": "uint256",
          "name": "score",
          "type": "uint256"
        },
        {
          "internalType": "string",
          "name": "tier",
          "type": "string"
        },
        {
          "internalType": "uint256",
          "name": "timestamp",
          "type": "uint256"
        }
      ],
      "stateMutability": "view",
      "type": "function"
    },
    {
      "inputs": [
        {
          "internalType": "uint256",
          "name": "tokenId",
          "type": "uint256"
        }
      ],
      "name": "getApproved",
      "outputs": [
        {
          "internalType": "address",
          "name": "",
          "type": "address"
        }
      ],
      "stateMutability": "view",
      "type": "function"
    },
    {
      "inputs": [
        {
          "internalType": "uint256",
          "name": "tokenId",
          "type": "uint256"
        }
      ],
      "name": "getEventNFT",
      "outputs": [
        {
          "components": [
            {
              "internalType": "string",
              "name": "eventId",
              "type": "string"
            },
            {
              "internalType": "uint256",
              "name": "rank",
              "type": "uint256"
            },
            {
              "internalType": "uint256",
              "name": "score",
              "type": "uint256"
            },
            {
              "internalType": "string",
              "name": "tier",
              "type": "string"
            },
            {
              "internalType": "uint256",
              "name": "timestamp",
              "type": "uint256"
            }
          ],
          "internalType": "struct CTNFT.EventNFT",
          "name": "",
          "type": "tuple"
        }
      ],
      "stateMutability": "view",
      "type": "function"
    },
    {
      "inputs": [
        {
          "internalType": "address",
          "name": "user",
          "type": "address"
        }
      ],
      "name": "getUserNFTs",
      "outputs": [
        {
          "internalType": "uint256[]",
          "name": "",
          "type": "uint256[]"
        }
      ],
      "stateMutability": "view",
      "type": "function"
    },
    {
      "inputs": [
        {
          "internalType": "address",
          "name": "owner",
          "type": "address"
        },
        {
          "internalType": "address",
          "name": "operator",
          "type": "address"
        }
      ],
      "name": "isApprovedForAll",
      "outputs": [
        {
          "internalType": "bool",
          "name": "",
          "type": "bool"
        }
      ],
      "stateMutability": "view",
      "type": "function"
    },
    {
      "inputs": [
        {
          "internalType": "address",
          "name": "to",
          "type": "address"
        },
        {
          "internalType": "string",
          "name": "eventId",
          "type": "string"
        },
        {
          "internalType": "uint256",
          "name": "rank",
          "type": "uint256"
        },
        {
          "internalType": "uint256",
          "name": "score",
          "type": "uint256"
        },
        {
          "internalType": "string",
          "name": "tier",
          "type": "string"
        },
        {
          "internalType": "string",
          "name": "uri",
          "type": "string"
        }
      ],
      "name": "mintNFT",
      "outputs": [
        {
          "internalType": "uint256",
          "name": "",
          "type": "uint256"
        }
      ],
      "stateMutability": "nonpayable",
      "type": "function"
    },
    {
      "inputs": [],
      "name": "name",
      "outputs": [
        {
          "internalType": "string",
          "name": "",
          "type": "string"
        }
      ],
      "stateMutability": "view",
      "type": "function"
    },
    {
      "inputs": [],
      "name": "owner",
      "outputs": [
        {
          "internalType": "address",
          "name": "",
          "type": "address"
        }
      ],
      "stateMutability": "view",
      "type": "function"
    },
    {
      "inputs": [
        {
          "internalType": "uint256",
          "name": "tokenId",
          "type": "uint256"
        }
      ],
      "name": "ownerOf",
      "outputs": [
        {
          "internalType": "address",
          "name": "",
          "type": "address"
        }
      ],
      "stateMutability": "view",
      "type": "function"
    },
    {
      "inputs": [],
      "name": "renounceOwnership",
      "outputs": [],
      "stateMutability": "nonpayable",
      "type": "function"
    },
    {
      "inputs": [
        {
          "internalType": "address",
          "name": "from",
          "type": "address"
        },
        {
          "internalType": "address",
          "name": "to",
          "type": "address"
        },
        {
          "internalType": "uint256",
          "name": "tokenId",
          "type": "uint256"
        }
      ],
      "name": "safeTransferFrom",
      "outputs": [],
      "stateMutability": "nonpayable",
      "type": "function"
    },
    {
      "inputs": [
        {
          "internalType": "address",
          "name": "from",
          "type": "address"
        },
        {
          "internalType": "address",
          "name": "to",
          "type": "address"
        },
        {
          "internalType": "uint256",
          "name": "tokenId",
          "type": "uint256"
        },
        {
          "internalType": "bytes",
          "name": "data",
          "type": "bytes"
        }
      ],
      "name": "safeTransferFrom",
      "outputs": [],
      "stateMutability": "nonpayable",
      "type": "function"
    },
    {
      "inputs": [
        {
          "internalType": "address",
          "name": "operator",
          "type": "address"
        },
        {
          "internalType": "bool",
          "name": "approved",
          "type": "bool"
        }
      ],
      "name": "setApprovalForAll",
      "outputs": [],
      "stateMutability": "nonpayable",
      "type": "function"
    },
    {
      "inputs": [
        {
          "internalType": "bytes4",
          "name": "interfaceId",
          "type": "bytes4"
        }
      ],
      "name": "supportsInterface",
      "outputs": [
        {
          "internalType": "bool",
          "name": "",
          "type": "bool"
        }
      ],
      "stateMutability": "view",
      "type": "function"
    },
    {
      "inputs": [],
      "name": "symbol",
      "outputs": [
        {
          "internalType": "string",
          "name": "",
          "type": "string"
        }
      ],
      "stateMutability": "view",
      "type": "function"
    },
    {
      "inputs": [
        {
          "internalType": "uint256",
          "name": "tokenId",
          "type": "uint256"
        }
      ],
      "name": "tokenURI",
      "outputs": [
        {
          "internalType": "string",
          "name": "",
          "type": "string"
        }
      ],
      "stateMutability": "view",
      "type": "function"
    },
    {
      "inputs": [
        {
          "internalType": "address",
          "name": "from",
          "type": "address"
        },
        {
          "internalType": "address",
          "name": "to",
          "type": "address"
        },
        {
          "internalType": "uint256",
          "name": "tokenId",
          "type": "uint256"
        }
      ],
      "name": "transferFrom",
      "outputs": [],
      "stateMutability": "nonpayable",
      "type": "function"
    },
    {
      "inputs": [
        {
          "internalType": "address",
          "name": "newOwner",
          "type": "address"
        }
      ],
      "name": "transferOwnership",
      "outputs": [],
      "stateMutability": "nonpayable",
      "type": "function"
    },
    {
      "inputs": [
        {
          "internalType": "string",
          "name": "",
          "type": "string"
        }
      ],
      "name": "validEvents",
      "outputs": [
        {
          "internalType": "bool",
          "name": "",
          "type": "bool"
        }
      ],
      "stateMutability": "view",
      "type": "function"
    }
  ],
  "bytecode": "0x60806040523480156200001157600080fd5b50336040518060400160405280600f81526020016e10d85c1d1d5c9948151a1948139195608a1b8152506040518060400160405280600581526020016410d513919560da1b81525081600090816200006a9190620001b4565b506001620000798282620001b4565b5050506001600160a01b038116620000ab57604051631e4fbdf760e01b81526000600482015260240160405180910390fd5b620000b681620000bd565b5062000280565b600780546001600160a01b038381166001600160a01b0319831681179093556040519116919082907f8be0079c531659141344cd1fd0a4f28419497f9722a3daafe3b4186f6b6457e090600090a35050565b634e487b7160e01b600052604160045260246000fd5b600181811c908216806200013a57607f821691505b6020821081036200015b57634e487b7160e01b600052602260045260246000fd5b50919050565b601f821115620001af57600081815260208120601f850160051c810160208610156200018a5750805b601f850160051c820191505b81811015620001ab5782815560010162000196565b5050505b505050565b81516001600160401b03811115620001d057620001d06200010f565b620001e881620001e1845462000125565b8462000161565b602080601f831160018114620002205760008415620002075750858301515b600019600386901b1c1916600185901b178555620001ab565b600085815260208120601f198616915b82811015620002515788860151825594840194600190910190840162000230565b5085821015620002705787850151600019600388901b60f8161c191681555b5050505050600190811b01905550565b61203180620002906000396000f3fe608060405234801561001057600080fd5b506004361061014d5760003560e01c80635dac68f4116100c3578063a22cb4651161007c578063a22cb46514610302578063b88d4fde14610315578063c87b56dd14610328578063cc8b948f1461033b578063e985e9c51461034e578063f2fde38b1461036157600080fd5b80635dac68f4146102975780636352211e146102bb57806370a08231146102ce578063715018a6146102e15780638da5cb5b146102e957806395d89b41146102fa57600080fd5b80630b604a64116101155780630b604a64146101ef57806315c5e3dd1461020257806323b872dd1461022357806342842e0e14610236578063469cf35b1461024957806352de4ee51461027757600080fd5b806301ffc9a71461015257806306fdde031461017a578063081812fc1461018f578063095ea7b3146101ba57806309b40022146101cf575b600080fd5b6101656101603660046116a9565b610374565b60405190151581526020015b60405180910390f35b610182610385565b6040516101719190611716565b6101a261019d366004611729565b610417565b6040516001600160a01b039091168152602001610171565b6101cd6101c836600461175e565b610440565b005b6101e26101dd366004611729565b61044f565b6040516101719190611788565b6101cd6101fd3660046118ab565b610642565b6102156102103660046118e0565b61067f565b604051908152602001610171565b6101cd61023136600461198b565b61082a565b6101cd61024436600461198b565b6108b5565b6101656102573660046118ab565b8051602081830181018051600a8252928201919093012091525460ff1681565b61028a6102853660046119c7565b6108d5565b60405161017191906119e2565b6102aa6102a5366004611729565b6109a2565b604051610171959493929190611a26565b6101a26102c9366004611729565b610ae0565b6102156102dc3660046119c7565b610aeb565b6101cd610b33565b6007546001600160a01b03166101a2565b610182610b47565b6101cd610310366004611a6a565b610b56565b6101cd610323366004611aa6565b610b61565b610182610336366004611729565b610b79565b6101cd610349366004611c93565b610b84565b61016561035c366004611d7b565b610cb7565b6101cd61036f3660046119c7565b610ce5565b600061037f82610d23565b92915050565b60606000805461039490611dae565b80601f01602080910402602001604051908101604052809291908181526020018280546103c090611dae565b801561040d5780601f106103e25761010080835404028352916020019161040d565b820191906000526020600020905b8154815290600101906020018083116103f057829003601f168201915b5050505050905090565b600061042282610d48565b506000828152600460205260409020546001600160a01b031661037f565b61044b828233610d81565b5050565b6104816040518060a0016040528060608152602001600081526020016000815260200160608152602001600081525090565b6000828152600260205260409020546001600160a01b03166104e15760405162461bcd60e51b8152602060048201526014602482015273151bdad95b88191bd95cc81b9bdd08195e1a5cdd60621b60448201526064015b60405180910390fd5b60008281526009602052604090819020815160a0810190925280548290829061050990611dae565b80601f016020809104026020016040519081016040528092919081815260200182805461053590611dae565b80156105825780601f1061055757610100808354040283529160200191610582565b820191906000526020600020905b81548152906001019060200180831161056557829003601f168201915b5050505050815260200160018201548152602001600282015481526020016003820180546105af90611dae565b80601f01602080910402602001604051908101604052809291908181526020018280546105db90611dae565b80156106285780601f106105fd57610100808354040283529160200191610628565b820191906000526020600020905b81548152906001019060200180831161060b57829003601f168201915b505050505081526020016004820154815250509050919050565b61064a610d8e565b6001600a8260405161065c9190611de8565b908152604051908190036020019020805491151560ff1990921691909117905550565b6000610689610d8e565b600a866040516106999190611de8565b9081526040519081900360200190205460ff166106eb5760405162461bcd60e51b815260206004820152601060248201526f125b9d985b1a5908195d995b9d08125160821b60448201526064016104d8565b60008351116107335760405162461bcd60e51b8152602060048201526014602482015273546965722063616e6e6f7420626520656d70747960601b60448201526064016104d8565b60088054908190600061074583611e04565b91905055506107548882610dbb565b61075e8184610e20565b6040805160a0810182528881526020808201899052818301889052606082018790524260808301526000848152600990915291909120815181906107a29082611e71565b506020820151600182015560408201516002820155606082015160038201906107cb9082611e71565b506080820151816004015590505080886001600160a01b03167f4191327509835d69d9ff9c5205c671236e8f846c62c29c9ca6bcd74153bd385689898860405161081793929190611f31565b60405180910390a3979650505050505050565b6001600160a01b03821661085457604051633250574960e11b8152600060048201526024016104d8565b6000610861838333610e70565b9050836001600160a01b0316816001600160a01b0316146108af576040516364283d7b60e01b81526001600160a01b03808616600483015260248201849052821660448201526064016104d8565b50505050565b6108d083838360405180602001604052806000815250610b61565b505050565b606060006108e283610aeb565b905060008167ffffffffffffffff8111156108ff576108ff6117ec565b604051908082528060200260200182016040528015610928578160200160208202803683370190505b5090506000805b600854811015610998576000818152600260205260409020546001600160a01b03878116911603610986578083838151811061096d5761096d611f66565b60209081029190910101528161098281611e04565b9250505b8061099081611e04565b91505061092f565b5090949350505050565b6009602052600090815260409020805481906109bd90611dae565b80601f01602080910402602001604051908101604052809291908181526020018280546109e990611dae565b8015610a365780601f10610a0b57610100808354040283529160200191610a36565b820191906000526020600020905b815481529060010190602001808311610a1957829003601f168201915b505050505090806001015490806002015490806003018054610a5790611dae565b80601f0160208091040260200160405190810160405280929190818152602001828054610a8390611dae565b8015610ad05780601f10610aa557610100808354040283529160200191610ad0565b820191906000526020600020905b815481529060010190602001808311610ab357829003601f168201915b5050505050908060040154905085565b600061037f82610d48565b60006001600160a01b038216610b17576040516322718ad960e21b8152600060048201526024016104d8565b506001600160a01b031660009081526003602052604090205490565b610b3b610d8e565b610b456000610f69565b565b60606001805461039490611dae565b61044b338383610fbb565b610b6c84848461082a565b6108af338585858561105a565b606061037f82611185565b610b8c610d8e565b83518651148015610b9e575082518651145b8015610bab575081518651145b8015610bb8575080518651145b610c045760405162461bcd60e51b815260206004820152601860248201527f4172726179206c656e67746873206d757374206d61746368000000000000000060448201526064016104d8565b60005b8651811015610cae57610c9b878281518110610c2557610c25611f66565b602002602001015187878481518110610c4057610c40611f66565b6020026020010151878581518110610c5a57610c5a611f66565b6020026020010151878681518110610c7457610c74611f66565b6020026020010151878781518110610c8e57610c8e611f66565b602002602001015161067f565b5080610ca681611e04565b915050610c07565b50505050505050565b6001600160a01b03918216600090815260056020908152604080832093909416825291909152205460ff1690565b610ced610d8e565b6001600160a01b038116610d1757604051631e4fbdf760e01b8152600060048201526024016104d8565b610d2081610f69565b50565b60006001600160e01b03198216632483248360e11b148061037f575061037f82611296565b6000818152600260205260408120546001600160a01b03168061037f57604051637e27328960e01b8152600481018490526024016104d8565b6108d083838360016112e6565b6007546001600160a01b03163314610b455760405163118cdaa760e01b81523360048201526024016104d8565b6001600160a01b038216610de557604051633250574960e11b8152600060048201526024016104d8565b6000610df383836000610e70565b90506001600160a01b038116156108d0576040516339e3563760e11b8152600060048201526024016104d8565b6000828152600660205260409020610e388282611e71565b506040518281527ff8e1a15aba9398e019f0b49df1a4fde98ee17ae345cb5f6b5e2c27f5033e8ce79060200160405180910390a15050565b6000828152600260205260408120546001600160a01b0390811690831615610e9d57610e9d8184866113ec565b6001600160a01b03811615610edb57610eba6000856000806112e6565b6001600160a01b038116600090815260036020526040902080546000190190555b6001600160a01b03851615610f0a576001600160a01b0385166000908152600360205260409020805460010190555b60008481526002602052604080822080546001600160a01b0319166001600160a01b0389811691821790925591518793918516917fddf252ad1be2c89b69c2b068fc378daa952ba7f163c4a11628f55a4df523b3ef91a4949350505050565b600780546001600160a01b038381166001600160a01b0319831681179093556040519116919082907f8be0079c531659141344cd1fd0a4f28419497f9722a3daafe3b4186f6b6457e090600090a35050565b6001600160a01b038216610fed57604051630b61174360e31b81526001600160a01b03831660048201526024016104d8565b6001600160a01b03838116600081815260056020908152604080832094871680845294825291829020805460ff191686151590811790915591519182527f17307eab39ab6107e8899845ad3d59bd9653f200f220920489ca2b5937696c31910160405180910390a3505050565b6001600160a01b0383163b1561117e57604051630a85bd0160e11b81526001600160a01b0384169063150b7a029061109c908890889087908790600401611f7c565b6020604051808303816000875af19250505080156110d7575060408051601f3d908101601f191682019092526110d491810190611faf565b60015b611140573d808015611105576040519150601f19603f3d011682016040523d82523d6000602084013e61110a565b606091505b50805160000361113857604051633250574960e11b81526001600160a01b03851660048201526024016104d8565b805160208201fd5b6001600160e01b03198116630a85bd0160e11b1461117c57604051633250574960e11b81526001600160a01b03851660048201526024016104d8565b505b5050505050565b606061119082610d48565b50600082815260066020526040812080546111aa90611dae565b80601f01602080910402602001604051908101604052809291908181526020018280546111d690611dae565b80156112235780601f106111f857610100808354040283529160200191611223565b820191906000526020600020905b81548152906001019060200180831161120657829003601f168201915b50505050509050600061124160408051602081019091526000815290565b90508051600003611253575092915050565b81511561128557808260405160200161126d929190611fcc565b60405160208183030381529060405292505050919050565b61128e84611450565b949350505050565b60006001600160e01b031982166380ac58cd60e01b14806112c757506001600160e01b03198216635b5e139f60e01b145b8061037f57506301ffc9a760e01b6001600160e01b031983161461037f565b80806112fa57506001600160a01b03821615155b156113bc57600061130a84610d48565b90506001600160a01b038316158015906113365750826001600160a01b0316816001600160a01b031614155b801561134957506113478184610cb7565b155b156113725760405163a9fbf51f60e01b81526001600160a01b03841660048201526024016104d8565b81156113ba5783856001600160a01b0316826001600160a01b03167f8c5be1e5ebec7d5bd14f71427d1e84f3dd0314c0f7b2291e5b200ac8c7c3b92560405160405180910390a45b505b5050600090815260046020526040902080546001600160a01b0319166001600160a01b0392909216919091179055565b6113f78383836114c5565b6108d0576001600160a01b03831661142557604051637e27328960e01b8152600481018290526024016104d8565b60405163177e802f60e01b81526001600160a01b0383166004820152602481018290526044016104d8565b606061145b82610d48565b50600061147360408051602081019091526000815290565b9050600081511161149357604051806020016040528060008152506114be565b8061149d84611528565b6040516020016114ae929190611fcc565b6040516020818303038152906040525b9392505050565b60006001600160a01b0383161580159061128e5750826001600160a01b0316846001600160a01b031614806114ff57506114ff8484610cb7565b8061128e5750506000908152600460205260409020546001600160a01b03908116911614919050565b60606000611535836115bb565b600101905060008167ffffffffffffffff811115611555576115556117ec565b6040519080825280601f01601f19166020018201604052801561157f576020820181803683370190505b5090508181016020015b600019016f181899199a1a9b1b9c1cb0b131b232b360811b600a86061a8153600a850494508461158957509392505050565b60008072184f03e93ff9f4daa797ed6e38ed64bf6a1f0160401b83106115fa5772184f03e93ff9f4daa797ed6e38ed64bf6a1f0160401b830492506040015b6d04ee2d6d415b85acef81000000008310611626576d04ee2d6d415b85acef8100000000830492506020015b662386f26fc10000831061164457662386f26fc10000830492506010015b6305f5e100831061165c576305f5e100830492506008015b612710831061167057612710830492506004015b60648310611682576064830492506002015b600a831061037f5760010192915050565b6001600160e01b031981168114610d2057600080fd5b6000602082840312156116bb57600080fd5b81356114be81611693565b60005b838110156116e15781810151838201526020016116c9565b50506000910152565b600081518084526117028160208601602086016116c6565b601f01601f19169290920160200192915050565b6020815260006114be60208301846116ea565b60006020828403121561173b57600080fd5b5035919050565b80356001600160a01b038116811461175957600080fd5b919050565b6000806040838503121561177157600080fd5b61177a83611742565b946020939093013593505050565b602081526000825160a060208401526117a460c08401826116ea565b905060208401516040840152604084015160608401526060840151601f198483030160808501526117d582826116ea565b915050608084015160a08401528091505092915050565b634e487b7160e01b600052604160045260246000fd5b604051601f8201601f1916810167ffffffffffffffff8111828210171561182b5761182b6117ec565b604052919050565b600067ffffffffffffffff83111561184d5761184d6117ec565b611860601f8401601f1916602001611802565b905082815283838301111561187457600080fd5b828260208301376000602084830101529392505050565b600082601f83011261189c57600080fd5b6114be83833560208501611833565b6000602082840312156118bd57600080fd5b813567ffffffffffffffff8111156118d457600080fd5b61128e8482850161188b565b60008060008060008060c087890312156118f957600080fd5b61190287611742565b9550602087013567ffffffffffffffff8082111561191f57600080fd5b61192b8a838b0161188b565b96506040890135955060608901359450608089013591508082111561194f57600080fd5b61195b8a838b0161188b565b935060a089013591508082111561197157600080fd5b5061197e89828a0161188b565b9150509295509295509295565b6000806000606084860312156119a057600080fd5b6119a984611742565b92506119b760208501611742565b9150604084013590509250925092565b6000602082840312156119d957600080fd5b6114be82611742565b6020808252825182820181905260009190848201906040850190845b81811015611a1a578351835292840192918401916001016119fe565b50909695505050505050565b60a081526000611a3960a08301886116ea565b8660208401528560408401528281036060840152611a5781866116ea565b9150508260808301529695505050505050565b60008060408385031215611a7d57600080fd5b611a8683611742565b915060208301358015158114611a9b57600080fd5b809150509250929050565b60008060008060808587031215611abc57600080fd5b611ac585611742565b9350611ad360208601611742565b925060408501359150606085013567ffffffffffffffff811115611af657600080fd5b8501601f81018713611b0757600080fd5b611b1687823560208401611833565b91505092959194509250565b600067ffffffffffffffff821115611b3c57611b3c6117ec565b5060051b60200190565b600082601f830112611b5757600080fd5b81356020611b6c611b6783611b22565b611802565b82815260059290921b84018101918181019086841115611b8b57600080fd5b8286015b84811015611bad57611ba081611742565b8352918301918301611b8f565b509695505050505050565b600082601f830112611bc957600080fd5b81356020611bd9611b6783611b22565b82815260059290921b84018101918181019086841115611bf857600080fd5b8286015b84811015611bad5780358352918301918301611bfc565b600082601f830112611c2457600080fd5b81356020611c34611b6783611b22565b82815260059290921b84018101918181019086841115611c5357600080fd5b8286015b84811015611bad57803567ffffffffffffffff811115611c775760008081fd5b611c858986838b010161188b565b845250918301918301611c57565b60008060008060008060c08789031215611cac57600080fd5b863567ffffffffffffffff80821115611cc457600080fd5b611cd08a838b01611b46565b97506020890135915080821115611ce657600080fd5b611cf28a838b0161188b565b96506040890135915080821115611d0857600080fd5b611d148a838b01611bb8565b95506060890135915080821115611d2a57600080fd5b611d368a838b01611bb8565b94506080890135915080821115611d4c57600080fd5b611d588a838b01611c13565b935060a0890135915080821115611d6e57600080fd5b5061197e89828a01611c13565b60008060408385031215611d8e57600080fd5b611d9783611742565b9150611da560208401611742565b90509250929050565b600181811c90821680611dc257607f821691505b602082108103611de257634e487b7160e01b600052602260045260246000fd5b50919050565b60008251611dfa8184602087016116c6565b9190910192915050565b600060018201611e2457634e487b7160e01b600052601160045260246000fd5b5060010190565b601f8211156108d057600081815260208120601f850160051c81016020861015611e525750805b601f850160051c820191505b8181101561117c57828155600101611e5e565b815167ffffffffffffffff811115611e8b57611e8b6117ec565b611e9f81611e998454611dae565b84611e2b565b602080601f831160018114611ed45760008415611ebc5750858301515b600019600386901b1c1916600185901b17855561117c565b600085815260208120601f198616915b82811015611f0357888601518255948401946001909101908401611ee4565b5085821015611f215787850151600019600388901b60f8161c191681555b5050505050600190811b01905550565b606081526000611f4460608301866116ea565b8460208401528281036040840152611f5c81856116ea565b9695505050505050565b634e487b7160e01b600052603260045260246000fd5b6001600160a01b0385811682528416602082015260408101839052608060608201819052600090611f5c908301846116ea565b600060208284031215611fc157600080fd5b81516114be81611693565b60008351611fde8184602088016116c6565b835190830190611ff28183602088016116c6565b0194935050505056fea2646970667358221220232d01e47d4cea67c8a5b4bdffdfff5d722293a7ab6378d64a4f3d9193b25b0564736f6c63430008140033",
  "linkReferences": {},
  "deployedLinkReferences": {}
}